{
  "_format": "hh-sol-artifact-1",
  "contractName": "Ratemyclass",
  "sourceName": "contracts/Ratemyclass.sol",
  "abi": [
    {
      "inputs": [],
      "stateMutability": "nonpayable",
      "type": "constructor"
    },
    {
      "anonymous": false,
      "inputs": [
        {
          "indexed": true,
          "internalType": "address",
          "name": "owner",
          "type": "address"
        },
        {
          "indexed": true,
          "internalType": "address",
          "name": "approved",
          "type": "address"
        },
        {
          "indexed": true,
          "internalType": "uint256",
          "name": "tokenId",
          "type": "uint256"
        }
      ],
      "name": "Approval",
      "type": "event"
    },
    {
      "anonymous": false,
      "inputs": [
        {
          "indexed": true,
          "internalType": "address",
          "name": "owner",
          "type": "address"
        },
        {
          "indexed": true,
          "internalType": "address",
          "name": "operator",
          "type": "address"
        },
        {
          "indexed": false,
          "internalType": "bool",
          "name": "approved",
          "type": "bool"
        }
      ],
      "name": "ApprovalForAll",
      "type": "event"
    },
    {
      "anonymous": false,
      "inputs": [
        {
          "indexed": false,
          "internalType": "uint256",
          "name": "id",
          "type": "uint256"
        },
        {
          "indexed": false,
          "internalType": "string",
          "name": "cid",
          "type": "string"
        },
        {
          "indexed": false,
          "internalType": "uint256",
          "name": "targetAmmount",
          "type": "uint256"
        },
        {
          "indexed": false,
          "internalType": "address",
          "name": "organizer",
          "type": "address"
        }
      ],
      "name": "GroupCreated",
      "type": "event"
    },
    {
      "anonymous": false,
      "inputs": [
        {
          "indexed": true,
          "internalType": "address",
          "name": "from",
          "type": "address"
        },
        {
          "indexed": true,
          "internalType": "address",
          "name": "to",
          "type": "address"
        },
        {
          "indexed": true,
          "internalType": "uint256",
          "name": "tokenId",
          "type": "uint256"
        }
      ],
      "name": "Transfer",
      "type": "event"
    },
    {
      "anonymous": false,
      "inputs": [
        {
          "indexed": false,
          "internalType": "uint256",
          "name": "id",
          "type": "uint256"
        },
        {
          "indexed": false,
          "internalType": "string",
          "name": "cid",
          "type": "string"
        },
        {
          "indexed": false,
          "internalType": "address",
          "name": "organizer",
          "type": "address"
        }
      ],
      "name": "commentCreated",
      "type": "event"
    },
    {
      "inputs": [],
      "name": "_totalClasses",
      "outputs": [
        {
          "internalType": "uint256",
          "name": "",
          "type": "uint256"
        }
      ],
      "stateMutability": "view",
      "type": "function"
    },
    {
      "inputs": [],
      "name": "_totalNFTs",
      "outputs": [
        {
          "internalType": "uint256",
          "name": "_value",
          "type": "uint256"
        }
      ],
      "stateMutability": "view",
      "type": "function"
    },
    {
      "inputs": [
        {
          "internalType": "address",
          "name": "to",
          "type": "address"
        },
        {
          "internalType": "uint256",
          "name": "tokenId",
          "type": "uint256"
        }
      ],
      "name": "approve",
      "outputs": [],
      "stateMutability": "nonpayable",
      "type": "function"
    },
    {
      "inputs": [
        {
          "internalType": "address",
          "name": "owner",
          "type": "address"
        }
      ],
      "name": "balanceOf",
      "outputs": [
        {
          "internalType": "uint256",
          "name": "",
          "type": "uint256"
        }
      ],
      "stateMutability": "view",
      "type": "function"
    },
    {
      "inputs": [
        {
          "internalType": "string",
          "name": "_cid",
          "type": "string"
        },
        {
          "internalType": "uint256",
          "name": "_targetAmmount",
          "type": "uint256"
        }
      ],
      "name": "createClass",
      "outputs": [],
      "stateMutability": "nonpayable",
      "type": "function"
    },
    {
      "inputs": [
        {
          "internalType": "uint256",
          "name": "_donationId",
          "type": "uint256"
        },
        {
          "internalType": "uint256",
          "name": "_donationAmmount",
          "type": "uint256"
        }
      ],
      "name": "donate",
      "outputs": [],
      "stateMutability": "nonpayable",
      "type": "function"
    },
    {
      "inputs": [],
      "name": "getAllGroups",
      "outputs": [
        {
          "components": [
            {
              "internalType": "uint256",
              "name": "id",
              "type": "uint256"
            },
            {
              "internalType": "string",
              "name": "cid",
              "type": "string"
            },
            {
              "internalType": "uint256",
              "name": "targetAmmount",
              "type": "uint256"
            },
            {
              "internalType": "uint256",
              "name": "totalDonations",
              "type": "uint256"
            },
            {
              "internalType": "address",
              "name": "organizer",
              "type": "address"
            }
          ],
          "internalType": "struct Ratemyclass.ClassesBluePrint[]",
          "name": "",
          "type": "tuple[]"
        }
      ],
      "stateMutability": "view",
      "type": "function"
    },
    {
      "inputs": [
        {
          "internalType": "uint256",
          "name": "tokenId",
          "type": "uint256"
        }
      ],
      "name": "getApproved",
      "outputs": [
        {
          "internalType": "address",
          "name": "",
          "type": "address"
        }
      ],
      "stateMutability": "view",
      "type": "function"
    },
    {
      "inputs": [
        {
          "internalType": "address",
          "name": "owner",
          "type": "address"
        },
        {
          "internalType": "address",
          "name": "operator",
          "type": "address"
        }
      ],
      "name": "isApprovedForAll",
      "outputs": [
        {
          "internalType": "bool",
          "name": "",
          "type": "bool"
        }
      ],
      "stateMutability": "view",
      "type": "function"
    },
    {
      "inputs": [
        {
          "internalType": "uint256",
          "name": "",
          "type": "uint256"
        }
      ],
      "name": "listOfClasses",
      "outputs": [
        {
          "internalType": "uint256",
          "name": "id",
          "type": "uint256"
        },
        {
          "internalType": "string",
          "name": "cid",
          "type": "string"
        },
        {
          "internalType": "uint256",
          "name": "targetAmmount",
          "type": "uint256"
        },
        {
          "internalType": "uint256",
          "name": "totalDonations",
          "type": "uint256"
        },
        {
          "internalType": "address",
          "name": "organizer",
          "type": "address"
        }
      ],
      "stateMutability": "view",
      "type": "function"
    },
    {
      "inputs": [
        {
          "internalType": "uint256",
          "name": "",
          "type": "uint256"
        }
      ],
      "name": "listOfComments",
      "outputs": [
        {
          "internalType": "uint256",
          "name": "id",
          "type": "uint256"
        },
        {
          "internalType": "string",
          "name": "cid",
          "type": "string"
        },
        {
          "internalType": "address",
          "name": "organizer",
          "type": "address"
        }
      ],
      "stateMutability": "view",
      "type": "function"
    },
    {
      "inputs": [],
      "name": "name",
      "outputs": [
        {
          "internalType": "string",
          "name": "",
          "type": "string"
        }
      ],
      "stateMutability": "view",
      "type": "function"
    },
    {
      "inputs": [
        {
          "internalType": "uint256",
          "name": "tokenId",
          "type": "uint256"
        }
      ],
      "name": "ownerOf",
      "outputs": [
        {
          "internalType": "address",
          "name": "",
          "type": "address"
        }
      ],
      "stateMutability": "view",
      "type": "function"
    },
    {
      "inputs": [
        {
          "internalType": "address",
          "name": "from",
          "type": "address"
        },
        {
          "internalType": "address",
          "name": "to",
          "type": "address"
        },
        {
          "internalType": "uint256",
          "name": "tokenId",
          "type": "uint256"
        }
      ],
      "name": "safeTransferFrom",
      "outputs": [],
      "stateMutability": "nonpayable",
      "type": "function"
    },
    {
      "inputs": [
        {
          "internalType": "address",
          "name": "from",
          "type": "address"
        },
        {
          "internalType": "address",
          "name": "to",
          "type": "address"
        },
        {
          "internalType": "uint256",
          "name": "tokenId",
          "type": "uint256"
        },
        {
          "internalType": "bytes",
          "name": "data",
          "type": "bytes"
        }
      ],
      "name": "safeTransferFrom",
      "outputs": [],
      "stateMutability": "nonpayable",
      "type": "function"
    },
    {
      "inputs": [
        {
          "internalType": "address",
          "name": "operator",
          "type": "address"
        },
        {
          "internalType": "bool",
          "name": "approved",
          "type": "bool"
        }
      ],
      "name": "setApprovalForAll",
      "outputs": [],
      "stateMutability": "nonpayable",
      "type": "function"
    },
    {
      "inputs": [
        {
          "internalType": "bytes4",
          "name": "interfaceId",
          "type": "bytes4"
        }
      ],
      "name": "supportsInterface",
      "outputs": [
        {
          "internalType": "bool",
          "name": "",
          "type": "bool"
        }
      ],
      "stateMutability": "view",
      "type": "function"
    },
    {
      "inputs": [],
      "name": "symbol",
      "outputs": [
        {
          "internalType": "string",
          "name": "",
          "type": "string"
        }
      ],
      "stateMutability": "view",
      "type": "function"
    },
    {
      "inputs": [
        {
          "internalType": "uint256",
          "name": "tokenId",
          "type": "uint256"
        }
      ],
      "name": "tokenURI",
      "outputs": [
        {
          "internalType": "string",
          "name": "",
          "type": "string"
        }
      ],
      "stateMutability": "view",
      "type": "function"
    },
    {
      "inputs": [
        {
          "internalType": "address",
          "name": "from",
          "type": "address"
        },
        {
          "internalType": "address",
          "name": "to",
          "type": "address"
        },
        {
          "internalType": "uint256",
          "name": "tokenId",
          "type": "uint256"
        }
      ],
      "name": "transferFrom",
      "outputs": [],
      "stateMutability": "nonpayable",
      "type": "function"
    }
  ],
  "bytecode": "0x608060405260006008553480156200001657600080fd5b506040518060400160405280600b81526020017f526174656d79436c6173730000000000000000000000000000000000000000008152506040518060400160405280600381526020017f524d43000000000000000000000000000000000000000000000000000000000081525081600090805190602001906200009b929190620000bd565b508060019080519060200190620000b4929190620000bd565b505050620001d2565b828054620000cb906200019c565b90600052602060002090601f016020900481019282620000ef57600085556200013b565b82601f106200010a57805160ff19168380011785556200013b565b828001600101855582156200013b579182015b828111156200013a5782518255916020019190600101906200011d565b5b5090506200014a91906200014e565b5090565b5b80821115620001695760008160009055506001016200014f565b5090565b7f4e487b7100000000000000000000000000000000000000000000000000000000600052602260045260246000fd5b60006002820490506001821680620001b557607f821691505b60208210811415620001cc57620001cb6200016d565b5b50919050565b612ded80620001e26000396000f3fe608060405234801561001057600080fd5b506004361061012c5760003560e01c806370a08231116100ad578063bbac337b11610071578063bbac337b1461032d578063c4373cd31461034b578063c87b56dd1461037d578063cb056ed3146103ad578063e985e9c5146103e15761012c565b806370a082311461028957806395d89b41146102b9578063a22cb465146102d7578063ab09048c146102f3578063b88d4fde146103115761012c565b806321cd3cae116100f457806321cd3cae146101e757806323b872dd1461020557806342842e0e146102215780634852a2121461023d5780636352211e146102595761012c565b806301ffc9a71461013157806306fdde0314610161578063081812fc1461017f578063095ea7b3146101af5780630cdd53f6146101cb575b600080fd5b61014b60048036038101906101469190611c4f565b610411565b6040516101589190611c97565b60405180910390f35b6101696104f3565b6040516101769190611d4b565b60405180910390f35b61019960048036038101906101949190611da3565b610585565b6040516101a69190611e11565b60405180910390f35b6101c960048036038101906101c49190611e58565b6105cb565b005b6101e560048036038101906101e09190611e98565b6106e3565b005b6101ef61071a565b6040516101fc9190612078565b60405180910390f35b61021f600480360381019061021a919061209a565b6108e6565b005b61023b6004803603810190610236919061209a565b610946565b005b61025760048036038101906102529190612152565b610966565b005b610273600480360381019061026e9190611da3565b610ae2565b6040516102809190611e11565b60405180910390f35b6102a3600480360381019061029e91906121b2565b610b94565b6040516102b091906121ee565b60405180910390f35b6102c1610c4c565b6040516102ce9190611d4b565b60405180910390f35b6102f160048036038101906102ec9190612235565b610cde565b005b6102fb610cf4565b60405161030891906121ee565b60405180910390f35b61032b600480360381019061032691906123a5565b610d00565b005b610335610d62565b60405161034291906121ee565b60405180910390f35b61036560048036038101906103609190611da3565b610d68565b60405161037493929190612428565b60405180910390f35b61039760048036038101906103929190611da3565b610e3a565b6040516103a49190611d4b565b60405180910390f35b6103c760048036038101906103c29190611da3565b610f4d565b6040516103d8959493929190612466565b60405180910390f35b6103fb60048036038101906103f691906124c0565b61102b565b6040516104089190611c97565b60405180910390f35b60007f80ac58cd000000000000000000000000000000000000000000000000000000007bffffffffffffffffffffffffffffffffffffffffffffffffffffffff1916827bffffffffffffffffffffffffffffffffffffffffffffffffffffffff191614806104dc57507f5b5e139f000000000000000000000000000000000000000000000000000000007bffffffffffffffffffffffffffffffffffffffffffffffffffffffff1916827bffffffffffffffffffffffffffffffffffffffffffffffffffffffff1916145b806104ec57506104eb826110bf565b5b9050919050565b6060600080546105029061252f565b80601f016020809104026020016040519081016040528092919081815260200182805461052e9061252f565b801561057b5780601f106105505761010080835404028352916020019161057b565b820191906000526020600020905b81548152906001019060200180831161055e57829003601f168201915b5050505050905090565b600061059082611129565b6004600083815260200190815260200160002060009054906101000a900473ffffffffffffffffffffffffffffffffffffffff169050919050565b60006105d682610ae2565b90508073ffffffffffffffffffffffffffffffffffffffff168373ffffffffffffffffffffffffffffffffffffffff161415610647576040517f08c379a000000000000000000000000000000000000000000000000000000000815260040161063e906125d3565b60405180910390fd5b8073ffffffffffffffffffffffffffffffffffffffff16610666611174565b73ffffffffffffffffffffffffffffffffffffffff16148061069557506106948161068f611174565b61102b565b5b6106d4576040517f08c379a00000000000000000000000000000000000000000000000000000000081526004016106cb90612665565b60405180910390fd5b6106de838361117c565b505050565b60006009600084815260200190815260200160002090508181600301600082825461070e91906126b4565b92505081905550505050565b6060600060085467ffffffffffffffff81111561073a5761073961227a565b5b60405190808252806020026020018201604052801561077357816020015b610760611afb565b8152602001906001900390816107585790505b50905060005b6008548110156108de576000600960008381526020019081526020016000209050806040518060a0016040529081600082015481526020016001820180546107c09061252f565b80601f01602080910402602001604051908101604052809291908181526020018280546107ec9061252f565b80156108395780601f1061080e57610100808354040283529160200191610839565b820191906000526020600020905b81548152906001019060200180831161081c57829003601f168201915b5050505050815260200160028201548152602001600382015481526020016004820160009054906101000a900473ffffffffffffffffffffffffffffffffffffffff1673ffffffffffffffffffffffffffffffffffffffff1673ffffffffffffffffffffffffffffffffffffffff16815250508383815181106108bf576108be61270a565b5b60200260200101819052505080806108d690612739565b915050610779565b508091505090565b6108f76108f1611174565b82611235565b610936576040517f08c379a000000000000000000000000000000000000000000000000000000000815260040161092d906127f4565b60405180910390fd5b6109418383836112ca565b505050565b61096183838360405180602001604052806000815250610d00565b505050565b6040518060a00160405280600854815260200184848080601f016020809104026020016040519081016040528093929190818152602001838380828437600081840152601f19601f820116905080830192505050505050508152602001828152602001600081526020013373ffffffffffffffffffffffffffffffffffffffff16815250600960006008548152602001908152602001600020600082015181600001556020820151816001019080519060200190610a25929190611b40565b50604082015181600201556060820151816003015560808201518160040160006101000a81548173ffffffffffffffffffffffffffffffffffffffff021916908373ffffffffffffffffffffffffffffffffffffffff1602179055509050507f4b662a1faa1a19ddaa13c79132f9e6be0489da8515a957ad3decf1c7fec9a4c460085484848433604051610abd959493929190612841565b60405180910390a160086000815480929190610ad890612739565b9190505550505050565b6000806002600084815260200190815260200160002060009054906101000a900473ffffffffffffffffffffffffffffffffffffffff169050600073ffffffffffffffffffffffffffffffffffffffff168173ffffffffffffffffffffffffffffffffffffffff161415610b8b576040517f08c379a0000000000000000000000000000000000000000000000000000000008152600401610b82906128db565b60405180910390fd5b80915050919050565b60008073ffffffffffffffffffffffffffffffffffffffff168273ffffffffffffffffffffffffffffffffffffffff161415610c05576040517f08c379a0000000000000000000000000000000000000000000000000000000008152600401610bfc9061296d565b60405180910390fd5b600360008373ffffffffffffffffffffffffffffffffffffffff1673ffffffffffffffffffffffffffffffffffffffff168152602001908152602001600020549050919050565b606060018054610c5b9061252f565b80601f0160208091040260200160405190810160405280929190818152602001828054610c879061252f565b8015610cd45780601f10610ca957610100808354040283529160200191610cd4565b820191906000526020600020905b815481529060010190602001808311610cb757829003601f168201915b5050505050905090565b610cf0610ce9611174565b8383611531565b5050565b60078060000154905081565b610d11610d0b611174565b83611235565b610d50576040517f08c379a0000000000000000000000000000000000000000000000000000000008152600401610d47906127f4565b60405180910390fd5b610d5c8484848461169e565b50505050565b60085481565b600a602052806000526040600020600091509050806000015490806001018054610d919061252f565b80601f0160208091040260200160405190810160405280929190818152602001828054610dbd9061252f565b8015610e0a5780601f10610ddf57610100808354040283529160200191610e0a565b820191906000526020600020905b815481529060010190602001808311610ded57829003601f168201915b5050505050908060020160009054906101000a900473ffffffffffffffffffffffffffffffffffffffff16905083565b6060610e4582611129565b6000600660008481526020019081526020016000208054610e659061252f565b80601f0160208091040260200160405190810160405280929190818152602001828054610e919061252f565b8015610ede5780601f10610eb357610100808354040283529160200191610ede565b820191906000526020600020905b815481529060010190602001808311610ec157829003601f168201915b505050505090506000610eef6116fa565b9050600081511415610f05578192505050610f48565b600082511115610f3a578082604051602001610f229291906129c9565b60405160208183030381529060405292505050610f48565b610f4384611711565b925050505b919050565b6009602052806000526040600020600091509050806000015490806001018054610f769061252f565b80601f0160208091040260200160405190810160405280929190818152602001828054610fa29061252f565b8015610fef5780601f10610fc457610100808354040283529160200191610fef565b820191906000526020600020905b815481529060010190602001808311610fd257829003601f168201915b5050505050908060020154908060030154908060040160009054906101000a900473ffffffffffffffffffffffffffffffffffffffff16905085565b6000600560008473ffffffffffffffffffffffffffffffffffffffff1673ffffffffffffffffffffffffffffffffffffffff16815260200190815260200160002060008373ffffffffffffffffffffffffffffffffffffffff1673ffffffffffffffffffffffffffffffffffffffff16815260200190815260200160002060009054906101000a900460ff16905092915050565b60007f01ffc9a7000000000000000000000000000000000000000000000000000000007bffffffffffffffffffffffffffffffffffffffffffffffffffffffff1916827bffffffffffffffffffffffffffffffffffffffffffffffffffffffff1916149050919050565b61113281611779565b611171576040517f08c379a0000000000000000000000000000000000000000000000000000000008152600401611168906128db565b60405180910390fd5b50565b600033905090565b816004600083815260200190815260200160002060006101000a81548173ffffffffffffffffffffffffffffffffffffffff021916908373ffffffffffffffffffffffffffffffffffffffff160217905550808273ffffffffffffffffffffffffffffffffffffffff166111ef83610ae2565b73ffffffffffffffffffffffffffffffffffffffff167f8c5be1e5ebec7d5bd14f71427d1e84f3dd0314c0f7b2291e5b200ac8c7c3b92560405160405180910390a45050565b60008061124183610ae2565b90508073ffffffffffffffffffffffffffffffffffffffff168473ffffffffffffffffffffffffffffffffffffffff1614806112835750611282818561102b565b5b806112c157508373ffffffffffffffffffffffffffffffffffffffff166112a984610585565b73ffffffffffffffffffffffffffffffffffffffff16145b91505092915050565b8273ffffffffffffffffffffffffffffffffffffffff166112ea82610ae2565b73ffffffffffffffffffffffffffffffffffffffff1614611340576040517f08c379a000000000000000000000000000000000000000000000000000000000815260040161133790612a5f565b60405180910390fd5b600073ffffffffffffffffffffffffffffffffffffffff168273ffffffffffffffffffffffffffffffffffffffff1614156113b0576040517f08c379a00000000000000000000000000000000000000000000000000000000081526004016113a790612af1565b60405180910390fd5b6113bb8383836117e5565b6113c660008261117c565b6001600360008573ffffffffffffffffffffffffffffffffffffffff1673ffffffffffffffffffffffffffffffffffffffff16815260200190815260200160002060008282546114169190612b11565b925050819055506001600360008473ffffffffffffffffffffffffffffffffffffffff1673ffffffffffffffffffffffffffffffffffffffff168152602001908152602001600020600082825461146d91906126b4565b92505081905550816002600083815260200190815260200160002060006101000a81548173ffffffffffffffffffffffffffffffffffffffff021916908373ffffffffffffffffffffffffffffffffffffffff160217905550808273ffffffffffffffffffffffffffffffffffffffff168473ffffffffffffffffffffffffffffffffffffffff167fddf252ad1be2c89b69c2b068fc378daa952ba7f163c4a11628f55a4df523b3ef60405160405180910390a461152c8383836117ea565b505050565b8173ffffffffffffffffffffffffffffffffffffffff168373ffffffffffffffffffffffffffffffffffffffff1614156115a0576040517f08c379a000000000000000000000000000000000000000000000000000000000815260040161159790612b91565b60405180910390fd5b80600560008573ffffffffffffffffffffffffffffffffffffffff1673ffffffffffffffffffffffffffffffffffffffff16815260200190815260200160002060008473ffffffffffffffffffffffffffffffffffffffff1673ffffffffffffffffffffffffffffffffffffffff16815260200190815260200160002060006101000a81548160ff0219169083151502179055508173ffffffffffffffffffffffffffffffffffffffff168373ffffffffffffffffffffffffffffffffffffffff167f17307eab39ab6107e8899845ad3d59bd9653f200f220920489ca2b5937696c31836040516116919190611c97565b60405180910390a3505050565b6116a98484846112ca565b6116b5848484846117ef565b6116f4576040517f08c379a00000000000000000000000000000000000000000000000000000000081526004016116eb90612c23565b60405180910390fd5b50505050565b606060405180602001604052806000815250905090565b606061171c82611129565b60006117266116fa565b905060008151116117465760405180602001604052806000815250611771565b8061175084611977565b6040516020016117619291906129c9565b6040516020818303038152906040525b915050919050565b60008073ffffffffffffffffffffffffffffffffffffffff166002600084815260200190815260200160002060009054906101000a900473ffffffffffffffffffffffffffffffffffffffff1673ffffffffffffffffffffffffffffffffffffffff1614159050919050565b505050565b505050565b60006118108473ffffffffffffffffffffffffffffffffffffffff16611ad8565b1561196a578373ffffffffffffffffffffffffffffffffffffffff1663150b7a02611839611174565b8786866040518563ffffffff1660e01b815260040161185b9493929190612c98565b6020604051808303816000875af192505050801561189757506040513d601f19601f820116820180604052508101906118949190612cf9565b60015b61191a573d80600081146118c7576040519150601f19603f3d011682016040523d82523d6000602084013e6118cc565b606091505b50600081511415611912576040517f08c379a000000000000000000000000000000000000000000000000000000000815260040161190990612c23565b60405180910390fd5b805181602001fd5b63150b7a0260e01b7bffffffffffffffffffffffffffffffffffffffffffffffffffffffff1916817bffffffffffffffffffffffffffffffffffffffffffffffffffffffff19161491505061196f565b600190505b949350505050565b606060008214156119bf576040518060400160405280600181526020017f30000000000000000000000000000000000000000000000000000000000000008152509050611ad3565b600082905060005b600082146119f15780806119da90612739565b915050600a826119ea9190612d55565b91506119c7565b60008167ffffffffffffffff811115611a0d57611a0c61227a565b5b6040519080825280601f01601f191660200182016040528015611a3f5781602001600182028036833780820191505090505b5090505b60008514611acc57600182611a589190612b11565b9150600a85611a679190612d86565b6030611a7391906126b4565b60f81b818381518110611a8957611a8861270a565b5b60200101907effffffffffffffffffffffffffffffffffffffffffffffffffffffffffffff1916908160001a905350600a85611ac59190612d55565b9450611a43565b8093505050505b919050565b6000808273ffffffffffffffffffffffffffffffffffffffff163b119050919050565b6040518060a0016040528060008152602001606081526020016000815260200160008152602001600073ffffffffffffffffffffffffffffffffffffffff1681525090565b828054611b4c9061252f565b90600052602060002090601f016020900481019282611b6e5760008555611bb5565b82601f10611b8757805160ff1916838001178555611bb5565b82800160010185558215611bb5579182015b82811115611bb4578251825591602001919060010190611b99565b5b509050611bc29190611bc6565b5090565b5b80821115611bdf576000816000905550600101611bc7565b5090565b6000604051905090565b600080fd5b600080fd5b60007fffffffff0000000000000000000000000000000000000000000000000000000082169050919050565b611c2c81611bf7565b8114611c3757600080fd5b50565b600081359050611c4981611c23565b92915050565b600060208284031215611c6557611c64611bed565b5b6000611c7384828501611c3a565b91505092915050565b60008115159050919050565b611c9181611c7c565b82525050565b6000602082019050611cac6000830184611c88565b92915050565b600081519050919050565b600082825260208201905092915050565b60005b83811015611cec578082015181840152602081019050611cd1565b83811115611cfb576000848401525b50505050565b6000601f19601f8301169050919050565b6000611d1d82611cb2565b611d278185611cbd565b9350611d37818560208601611cce565b611d4081611d01565b840191505092915050565b60006020820190508181036000830152611d658184611d12565b905092915050565b6000819050919050565b611d8081611d6d565b8114611d8b57600080fd5b50565b600081359050611d9d81611d77565b92915050565b600060208284031215611db957611db8611bed565b5b6000611dc784828501611d8e565b91505092915050565b600073ffffffffffffffffffffffffffffffffffffffff82169050919050565b6000611dfb82611dd0565b9050919050565b611e0b81611df0565b82525050565b6000602082019050611e266000830184611e02565b92915050565b611e3581611df0565b8114611e4057600080fd5b50565b600081359050611e5281611e2c565b92915050565b60008060408385031215611e6f57611e6e611bed565b5b6000611e7d85828601611e43565b9250506020611e8e85828601611d8e565b9150509250929050565b60008060408385031215611eaf57611eae611bed565b5b6000611ebd85828601611d8e565b9250506020611ece85828601611d8e565b9150509250929050565b600081519050919050565b600082825260208201905092915050565b6000819050602082019050919050565b611f0d81611d6d565b82525050565b600082825260208201905092915050565b6000611f2f82611cb2565b611f398185611f13565b9350611f49818560208601611cce565b611f5281611d01565b840191505092915050565b611f6681611df0565b82525050565b600060a083016000830151611f846000860182611f04565b5060208301518482036020860152611f9c8282611f24565b9150506040830151611fb16040860182611f04565b506060830151611fc46060860182611f04565b506080830151611fd76080860182611f5d565b508091505092915050565b6000611fee8383611f6c565b905092915050565b6000602082019050919050565b600061200e82611ed8565b6120188185611ee3565b93508360208202850161202a85611ef4565b8060005b8581101561206657848403895281516120478582611fe2565b945061205283611ff6565b925060208a0199505060018101905061202e565b50829750879550505050505092915050565b600060208201905081810360008301526120928184612003565b905092915050565b6000806000606084860312156120b3576120b2611bed565b5b60006120c186828701611e43565b93505060206120d286828701611e43565b92505060406120e386828701611d8e565b9150509250925092565b600080fd5b600080fd5b600080fd5b60008083601f840112612112576121116120ed565b5b8235905067ffffffffffffffff81111561212f5761212e6120f2565b5b60208301915083600182028301111561214b5761214a6120f7565b5b9250929050565b60008060006040848603121561216b5761216a611bed565b5b600084013567ffffffffffffffff81111561218957612188611bf2565b5b612195868287016120fc565b935093505060206121a886828701611d8e565b9150509250925092565b6000602082840312156121c8576121c7611bed565b5b60006121d684828501611e43565b91505092915050565b6121e881611d6d565b82525050565b600060208201905061220360008301846121df565b92915050565b61221281611c7c565b811461221d57600080fd5b50565b60008135905061222f81612209565b92915050565b6000806040838503121561224c5761224b611bed565b5b600061225a85828601611e43565b925050602061226b85828601612220565b9150509250929050565b600080fd5b7f4e487b7100000000000000000000000000000000000000000000000000000000600052604160045260246000fd5b6122b282611d01565b810181811067ffffffffffffffff821117156122d1576122d061227a565b5b80604052505050565b60006122e4611be3565b90506122f082826122a9565b919050565b600067ffffffffffffffff8211156123105761230f61227a565b5b61231982611d01565b9050602081019050919050565b82818337600083830152505050565b6000612348612343846122f5565b6122da565b90508281526020810184848401111561236457612363612275565b5b61236f848285612326565b509392505050565b600082601f83011261238c5761238b6120ed565b5b813561239c848260208601612335565b91505092915050565b600080600080608085870312156123bf576123be611bed565b5b60006123cd87828801611e43565b94505060206123de87828801611e43565b93505060406123ef87828801611d8e565b925050606085013567ffffffffffffffff8111156124105761240f611bf2565b5b61241c87828801612377565b91505092959194509250565b600060608201905061243d60008301866121df565b818103602083015261244f8185611d12565b905061245e6040830184611e02565b949350505050565b600060a08201905061247b60008301886121df565b818103602083015261248d8187611d12565b905061249c60408301866121df565b6124a960608301856121df565b6124b66080830184611e02565b9695505050505050565b600080604083850312156124d7576124d6611bed565b5b60006124e585828601611e43565b92505060206124f685828601611e43565b9150509250929050565b7f4e487b7100000000000000000000000000000000000000000000000000000000600052602260045260246000fd5b6000600282049050600182168061254757607f821691505b6020821081141561255b5761255a612500565b5b50919050565b7f4552433732313a20617070726f76616c20746f2063757272656e74206f776e6560008201527f7200000000000000000000000000000000000000000000000000000000000000602082015250565b60006125bd602183611cbd565b91506125c882612561565b604082019050919050565b600060208201905081810360008301526125ec816125b0565b9050919050565b7f4552433732313a20617070726f76652063616c6c6572206973206e6f7420746f60008201527f6b656e206f776e6572206e6f7220617070726f76656420666f7220616c6c0000602082015250565b600061264f603e83611cbd565b915061265a826125f3565b604082019050919050565b6000602082019050818103600083015261267e81612642565b9050919050565b7f4e487b7100000000000000000000000000000000000000000000000000000000600052601160045260246000fd5b60006126bf82611d6d565b91506126ca83611d6d565b9250827fffffffffffffffffffffffffffffffffffffffffffffffffffffffffffffffff038211156126ff576126fe612685565b5b828201905092915050565b7f4e487b7100000000000000000000000000000000000000000000000000000000600052603260045260246000fd5b600061274482611d6d565b91507fffffffffffffffffffffffffffffffffffffffffffffffffffffffffffffffff82141561277757612776612685565b5b600182019050919050565b7f4552433732313a2063616c6c6572206973206e6f7420746f6b656e206f776e6560008201527f72206e6f7220617070726f766564000000000000000000000000000000000000602082015250565b60006127de602e83611cbd565b91506127e982612782565b604082019050919050565b6000602082019050818103600083015261280d816127d1565b9050919050565b60006128208385611cbd565b935061282d838584612326565b61283683611d01565b840190509392505050565b600060808201905061285660008301886121df565b8181036020830152612869818688612814565b905061287860408301856121df565b6128856060830184611e02565b9695505050505050565b7f4552433732313a20696e76616c696420746f6b656e2049440000000000000000600082015250565b60006128c5601883611cbd565b91506128d08261288f565b602082019050919050565b600060208201905081810360008301526128f4816128b8565b9050919050565b7f4552433732313a2061646472657373207a65726f206973206e6f74206120766160008201527f6c6964206f776e65720000000000000000000000000000000000000000000000602082015250565b6000612957602983611cbd565b9150612962826128fb565b604082019050919050565b600060208201905081810360008301526129868161294a565b9050919050565b600081905092915050565b60006129a382611cb2565b6129ad818561298d565b93506129bd818560208601611cce565b80840191505092915050565b60006129d58285612998565b91506129e18284612998565b91508190509392505050565b7f4552433732313a207472616e736665722066726f6d20696e636f72726563742060008201527f6f776e6572000000000000000000000000000000000000000000000000000000602082015250565b6000612a49602583611cbd565b9150612a54826129ed565b604082019050919050565b60006020820190508181036000830152612a7881612a3c565b9050919050565b7f4552433732313a207472616e7366657220746f20746865207a65726f2061646460008201527f7265737300000000000000000000000000000000000000000000000000000000602082015250565b6000612adb602483611cbd565b9150612ae682612a7f565b604082019050919050565b60006020820190508181036000830152612b0a81612ace565b9050919050565b6000612b1c82611d6d565b9150612b2783611d6d565b925082821015612b3a57612b39612685565b5b828203905092915050565b7f4552433732313a20617070726f766520746f2063616c6c657200000000000000600082015250565b6000612b7b601983611cbd565b9150612b8682612b45565b602082019050919050565b60006020820190508181036000830152612baa81612b6e565b9050919050565b7f4552433732313a207472616e7366657220746f206e6f6e20455243373231526560008201527f63656976657220696d706c656d656e7465720000000000000000000000000000602082015250565b6000612c0d603283611cbd565b9150612c1882612bb1565b604082019050919050565b60006020820190508181036000830152612c3c81612c00565b9050919050565b600081519050919050565b600082825260208201905092915050565b6000612c6a82612c43565b612c748185612c4e565b9350612c84818560208601611cce565b612c8d81611d01565b840191505092915050565b6000608082019050612cad6000830187611e02565b612cba6020830186611e02565b612cc760408301856121df565b8181036060830152612cd98184612c5f565b905095945050505050565b600081519050612cf381611c23565b92915050565b600060208284031215612d0f57612d0e611bed565b5b6000612d1d84828501612ce4565b91505092915050565b7f4e487b7100000000000000000000000000000000000000000000000000000000600052601260045260246000fd5b6000612d6082611d6d565b9150612d6b83611d6d565b925082612d7b57612d7a612d26565b5b828204905092915050565b6000612d9182611d6d565b9150612d9c83611d6d565b925082612dac57612dab612d26565b5b82820690509291505056fea2646970667358221220b263fac2c705b62cee2d2a7192f2401c7bb89033bcd2aa1375f2c09ebfe1329664736f6c634300080a0033",
  "linkReferences": {},
  "deployedLinkReferences": {}
}